{
  "contractName": "Marketplace",
  "abi": [
    {
      "constant": true,
      "inputs": [],
      "name": "name",
      "outputs": [
        {
          "name": "",
          "type": "string"
        }
      ],
      "payable": false,
      "stateMutability": "view",
      "type": "function",
      "signature": "0x06fdde03"
    },
    {
      "constant": true,
      "inputs": [
        {
          "name": "",
          "type": "uint256"
        }
      ],
      "name": "products",
      "outputs": [
        {
          "name": "m_id",
          "type": "uint256"
        },
        {
          "name": "m_name",
          "type": "string"
        },
        {
          "name": "m_price",
          "type": "uint256"
        },
        {
          "name": "m_owner",
          "type": "address"
        },
        {
          "name": "m_purchased",
          "type": "bool"
        },
        {
          "name": "m_description",
          "type": "string"
        },
        {
          "name": "m_photo",
          "type": "string"
        }
      ],
      "payable": false,
      "stateMutability": "view",
      "type": "function",
      "signature": "0x7acc0b20"
    },
    {
      "constant": true,
      "inputs": [],
      "name": "productsCount",
      "outputs": [
        {
          "name": "",
          "type": "uint256"
        }
      ],
      "payable": false,
      "stateMutability": "view",
      "type": "function",
      "signature": "0xe0df7bb6"
    },
    {
      "inputs": [],
      "payable": false,
      "stateMutability": "nonpayable",
      "type": "constructor",
      "signature": "constructor"
    },
    {
      "anonymous": false,
      "inputs": [
        {
          "indexed": false,
          "name": "id",
          "type": "uint256"
        },
        {
          "indexed": false,
          "name": "name",
          "type": "string"
        },
        {
          "indexed": false,
          "name": "price",
          "type": "uint256"
        },
        {
          "indexed": false,
          "name": "owner",
          "type": "address"
        },
        {
          "indexed": false,
          "name": "purchased",
          "type": "bool"
        },
        {
          "indexed": false,
          "name": "description",
          "type": "string"
        },
        {
          "indexed": false,
          "name": "photo",
          "type": "string"
        }
      ],
      "name": "ProductCreated",
      "type": "event",
      "signature": "0x306de7597241c4bdd3448c0fb99001855d22d2e714f6a7137396d1ee3ced4c39"
    },
    {
      "anonymous": false,
      "inputs": [
        {
          "indexed": false,
          "name": "id",
          "type": "uint256"
        },
        {
          "indexed": false,
          "name": "name",
          "type": "string"
        },
        {
          "indexed": false,
          "name": "price",
          "type": "uint256"
        },
        {
          "indexed": false,
          "name": "owner",
          "type": "address"
        },
        {
          "indexed": false,
          "name": "purchased",
          "type": "bool"
        },
        {
          "indexed": false,
          "name": "description",
          "type": "string"
        },
        {
          "indexed": false,
          "name": "photo",
          "type": "string"
        }
      ],
      "name": "ProductPurchased",
      "type": "event",
      "signature": "0xf3cf828694a557d71bd199692f3634aad20b0a0cfa137ce95b800ec5469f0321"
    },
    {
      "constant": false,
      "inputs": [
        {
          "name": "p_name",
          "type": "string"
        },
        {
          "name": "p_price",
          "type": "uint256"
        },
        {
          "name": "p_description",
          "type": "string"
        },
        {
          "name": "p_photo",
          "type": "string"
        }
      ],
      "name": "createProduct",
      "outputs": [],
      "payable": false,
      "stateMutability": "nonpayable",
      "type": "function",
      "signature": "0x07877cff"
    },
    {
      "constant": false,
      "inputs": [
        {
          "name": "p_id",
          "type": "uint256"
        }
      ],
      "name": "purchaseProduct",
      "outputs": [],
      "payable": true,
      "stateMutability": "payable",
      "type": "function",
      "signature": "0x38e76a03"
    }
  ],
  "bytecode": "0x608060405260006001553480156200001657600080fd5b506040805190810160405280601781526020017f4469737472696275746564204d61726b6574706c61636500000000000000000081525060009080519060200190620000649291906200006b565b506200011a565b828054600181600116156101000203166002900490600052602060002090601f016020900481019282601f10620000ae57805160ff1916838001178555620000df565b82800160010185558215620000df579182015b82811115620000de578251825591602001919060010190620000c1565b5b509050620000ee9190620000f2565b5090565b6200011791905b8082111562000113576000816000905550600101620000f9565b5090565b90565b611333806200012a6000396000f3fe60806040526004361061006d576000357c0100000000000000000000000000000000000000000000000000000000900463ffffffff16806306fdde031461007257806307877cff1461010257806338e76a03146103025780637acc0b2014610330578063e0df7bb614610508575b600080fd5b34801561007e57600080fd5b50610087610533565b6040518080602001828103825283818151815260200191508051906020019080838360005b838110156100c75780820151818401526020810190506100ac565b50505050905090810190601f1680156100f45780820380516001836020036101000a031916815260200191505b509250505060405180910390f35b34801561010e57600080fd5b506103006004803603608081101561012557600080fd5b810190808035906020019064010000000081111561014257600080fd5b82018360208201111561015457600080fd5b8035906020019184600183028401116401000000008311171561017657600080fd5b91908080601f016020809104026020016040519081016040528093929190818152602001838380828437600081840152601f19601f82011690508083019250505050505050919291929080359060200190929190803590602001906401000000008111156101e357600080fd5b8201836020820111156101f557600080fd5b8035906020019184600183028401116401000000008311171561021757600080fd5b91908080601f016020809104026020016040519081016040528093929190818152602001838380828437600081840152601f19601f8201169050808301925050505050505091929192908035906020019064010000000081111561027a57600080fd5b82018360208201111561028c57600080fd5b803590602001918460018302840111640100000000831117156102ae57600080fd5b91908080601f016020809104026020016040519081016040528093929190818152602001838380828437600081840152601f19601f8201169050808301925050505050505091929192905050506105d1565b005b61032e6004803603602081101561031857600080fd5b810190808035906020019092919050505061094f565b005b34801561033c57600080fd5b506103696004803603602081101561035357600080fd5b8101908080359060200190929190505050610fcf565b60405180888152602001806020018781526020018673ffffffffffffffffffffffffffffffffffffffff1673ffffffffffffffffffffffffffffffffffffffff16815260200185151515158152602001806020018060200184810384528a818151815260200191508051906020019080838360005b838110156103f95780820151818401526020810190506103de565b50505050905090810190601f1680156104265780820380516001836020036101000a031916815260200191505b50848103835286818151815260200191508051906020019080838360005b8381101561045f578082015181840152602081019050610444565b50505050905090810190601f16801561048c5780820380516001836020036101000a031916815260200191505b50848103825285818151815260200191508051906020019080838360005b838110156104c55780820151818401526020810190506104aa565b50505050905090810190601f1680156104f25780820380516001836020036101000a031916815260200191505b509a505050505050505050505060405180910390f35b34801561051457600080fd5b5061051d611206565b6040518082815260200191505060405180910390f35b60008054600181600116156101000203166002900480601f0160208091040260200160405190810160405280929190818152602001828054600181600116156101000203166002900480156105c95780601f1061059e576101008083540402835291602001916105c9565b820191906000526020600020905b8154815290600101906020018083116105ac57829003601f168201915b505050505081565b600084511115156105e157600080fd5b6000831115156105f057600080fd5b6000825111151561060057600080fd5b6000815111151561061057600080fd5b60016000815480929190600101919050555061062a61120c565b60e06040519081016040528060015481526020018681526020018581526020013373ffffffffffffffffffffffffffffffffffffffff168152602001600015158152602001848152602001838152509050806002600060015481526020019081526020016000206000820151816000015560208201518160010190805190602001906106b7929190611262565b506040820151816002015560608201518160030160006101000a81548173ffffffffffffffffffffffffffffffffffffffff021916908373ffffffffffffffffffffffffffffffffffffffff16021790555060808201518160030160146101000a81548160ff02191690831515021790555060a0820151816004019080519060200190610745929190611262565b5060c0820151816005019080519060200190610762929190611262565b509050507f306de7597241c4bdd3448c0fb99001855d22d2e714f6a7137396d1ee3ced4c39816000015182602001518360400151846060015185608001518660a001518760c0015160405180888152602001806020018781526020018673ffffffffffffffffffffffffffffffffffffffff1673ffffffffffffffffffffffffffffffffffffffff16815260200185151515158152602001806020018060200184810384528a818151815260200191508051906020019080838360005b8381101561083a57808201518184015260208101905061081f565b50505050905090810190601f1680156108675780820380516001836020036101000a031916815260200191505b50848103835286818151815260200191508051906020019080838360005b838110156108a0578082015181840152602081019050610885565b50505050905090810190601f1680156108cd5780820380516001836020036101000a031916815260200191505b50848103825285818151815260200191508051906020019080838360005b838110156109065780820151818401526020810190506108eb565b50505050905090810190601f1680156109335780820380516001836020036101000a031916815260200191505b509a505050505050505050505060405180910390a15050505050565b61095761120c565b6002600083815260200190815260200160002060e0604051908101604052908160008201548152602001600182018054600181600116156101000203166002900480601f016020809104026020016040519081016040528092919081815260200182805460018160011615610100020316600290048015610a195780601f106109ee57610100808354040283529160200191610a19565b820191906000526020600020905b8154815290600101906020018083116109fc57829003601f168201915b50505050508152602001600282015481526020016003820160009054906101000a900473ffffffffffffffffffffffffffffffffffffffff1673ffffffffffffffffffffffffffffffffffffffff1673ffffffffffffffffffffffffffffffffffffffff1681526020016003820160149054906101000a900460ff16151515158152602001600482018054600181600116156101000203166002900480601f016020809104026020016040519081016040528092919081815260200182805460018160011615610100020316600290048015610b365780601f10610b0b57610100808354040283529160200191610b36565b820191906000526020600020905b815481529060010190602001808311610b1957829003601f168201915b50505050508152602001600582018054600181600116156101000203166002900480601f016020809104026020016040519081016040528092919081815260200182805460018160011615610100020316600290048015610bd85780601f10610bad57610100808354040283529160200191610bd8565b820191906000526020600020905b815481529060010190602001808311610bbb57829003601f168201915b505050505081525050905060008160000151111515610bf657600080fd5b600154816000015111151515610c0b57600080fd5b80604001513410151515610c1e57600080fd5b8060800151151515610c2f57600080fd5b6000816060015190503373ffffffffffffffffffffffffffffffffffffffff168173ffffffffffffffffffffffffffffffffffffffff1614151515610c7357600080fd5b33826060019073ffffffffffffffffffffffffffffffffffffffff16908173ffffffffffffffffffffffffffffffffffffffff168152505060018260800190151590811515815250508160026000858152602001908152602001600020600082015181600001556020820151816001019080519060200190610cf6929190611262565b506040820151816002015560608201518160030160006101000a81548173ffffffffffffffffffffffffffffffffffffffff021916908373ffffffffffffffffffffffffffffffffffffffff16021790555060808201518160030160146101000a81548160ff02191690831515021790555060a0820151816004019080519060200190610d84929190611262565b5060c0820151816005019080519060200190610da1929190611262565b509050508073ffffffffffffffffffffffffffffffffffffffff166108fc349081150290604051600060405180830381858888f19350505050158015610deb573d6000803e3d6000fd5b507ff3cf828694a557d71bd199692f3634aad20b0a0cfa137ce95b800ec5469f03218383602001518460400151856060015186608001518760a001518860c0015160405180888152602001806020018781526020018673ffffffffffffffffffffffffffffffffffffffff1673ffffffffffffffffffffffffffffffffffffffff16815260200185151515158152602001806020018060200184810384528a818151815260200191508051906020019080838360005b83811015610ebc578082015181840152602081019050610ea1565b50505050905090810190601f168015610ee95780820380516001836020036101000a031916815260200191505b50848103835286818151815260200191508051906020019080838360005b83811015610f22578082015181840152602081019050610f07565b50505050905090810190601f168015610f4f5780820380516001836020036101000a031916815260200191505b50848103825285818151815260200191508051906020019080838360005b83811015610f88578082015181840152602081019050610f6d565b50505050905090810190601f168015610fb55780820380516001836020036101000a031916815260200191505b509a505050505050505050505060405180910390a1505050565b6002602052806000526040600020600091509050806000015490806001018054600181600116156101000203166002900480601f0160208091040260200160405190810160405280929190818152602001828054600181600116156101000203166002900480156110815780601f1061105657610100808354040283529160200191611081565b820191906000526020600020905b81548152906001019060200180831161106457829003601f168201915b5050505050908060020154908060030160009054906101000a900473ffffffffffffffffffffffffffffffffffffffff16908060030160149054906101000a900460ff1690806004018054600181600116156101000203166002900480601f01602080910402602001604051908101604052809291908181526020018280546001816001161561010002031660029004801561115e5780601f106111335761010080835404028352916020019161115e565b820191906000526020600020905b81548152906001019060200180831161114157829003601f168201915b505050505090806005018054600181600116156101000203166002900480601f0160208091040260200160405190810160405280929190818152602001828054600181600116156101000203166002900480156111fc5780601f106111d1576101008083540402835291602001916111fc565b820191906000526020600020905b8154815290600101906020018083116111df57829003601f168201915b5050505050905087565b60015481565b60e060405190810160405280600081526020016060815260200160008152602001600073ffffffffffffffffffffffffffffffffffffffff16815260200160001515815260200160608152602001606081525090565b828054600181600116156101000203166002900490600052602060002090601f016020900481019282601f106112a357805160ff19168380011785556112d1565b828001600101855582156112d1579182015b828111156112d05782518255916020019190600101906112b5565b5b5090506112de91906112e2565b5090565b61130491905b808211156113005760008160009055506001016112e8565b5090565b9056fea165627a7a723058202b771d97aaf03a35e604ddd7dae5ca98b65ec8d21434faedbe2807016205d8020029",
  "source": "pragma solidity ^0.5.0;\n\ncontract Marketplace {\n    string public name;\n    uint public productsCount = 0;\n    mapping(uint => Product) public products;\n    \n    struct Product {\n        uint m_id;\n        string m_name;\n        uint m_price;\n        address payable m_owner;\n        bool m_purchased;\n        string m_description;\n        string m_photo;\n    }\n    \n    event ProductCreated(\n        uint id,\n        string name,\n        uint price,\n        address payable owner,\n        bool purchased,\n        string description,\n        string photo\n    );\n    \n    event ProductPurchased(\n        uint id,\n        string name,\n        uint price,\n        address payable owner,\n        bool purchased,\n        string description,\n        string photo\n    );\n    \n    constructor() public {\n        name = \"Distributed Marketplace\";\n    }\n    \n    function createProduct(string memory p_name, uint p_price,string memory p_description, string memory p_photo) public {\n        require(bytes(p_name).length > 0);\n        require(p_price > 0);\n        require(bytes(p_description).length > 0);\n        require(bytes(p_photo).length > 0);\n        \n        productsCount++;\n        Product memory product = Product(productsCount, p_name, p_price, msg.sender, false, p_description, p_photo);\n        products[productsCount] = product;\n        emit ProductCreated(product.m_id, product.m_name, product.m_price, product.m_owner, product.m_purchased, product.m_description, product.m_photo);\n    }\n    \n    function purchaseProduct(uint p_id) public payable {\n        Product memory p_product = products[p_id];\n        require(p_product.m_id > 0);\n        require(p_product.m_id <= productsCount);\n        require(msg.value >= p_product.m_price);\n        require(!p_product.m_purchased);\n        \n        address payable p_seller = p_product.m_owner;\n        \n        require(p_seller != msg.sender);\n        p_product.m_owner = msg.sender;\n        p_product.m_purchased = true;\n        products[p_id] = p_product;\n        \n        address(p_seller).transfer(msg.value);\n        \n        emit ProductPurchased(p_id, p_product.m_name, p_product.m_price, p_product.m_owner, p_product.m_purchased, p_product.m_description, p_product.m_photo);\n    }\n}\n",
  "sourcePath": "/home/prauat/projects/marketplace/src/contracts/Marketplace.sol",
  "compiler": {
    "name": "solc",
    "version": "0.5.0+commit.1d4f565a.Emscripten.clang"
  },
  "schemaVersion": "3.0.2",
  "updatedAt": "2022-11-27T01:37:45.801Z",
  "devdoc": {
    "methods": {}
  },
  "userdoc": {
    "methods": {}
  }
}